{
  "_format": "hh-sol-artifact-1",
  "contractName": "MockToken",
  "sourceName": "contracts/MockToken.sol",
  "abi": [
    {
      "inputs": [
        {
          "internalType": "uint256",
          "name": "ownerBalance",
          "type": "uint256"
        }
      ],
      "stateMutability": "nonpayable",
      "type": "constructor"
    },
    {
      "anonymous": false,
      "inputs": [
        {
          "indexed": true,
          "internalType": "address",
          "name": "owner",
          "type": "address"
        },
        {
          "indexed": true,
          "internalType": "address",
          "name": "spender",
          "type": "address"
        },
        {
          "indexed": false,
          "internalType": "uint256",
          "name": "value",
          "type": "uint256"
        }
      ],
      "name": "Approval",
      "type": "event"
    },
    {
      "anonymous": false,
      "inputs": [
        {
          "indexed": false,
          "internalType": "uint256",
          "name": "",
          "type": "uint256"
        }
      ],
      "name": "BalanceCheck",
      "type": "event"
    },
    {
      "anonymous": false,
      "inputs": [
        {
          "indexed": false,
          "internalType": "uint256",
          "name": "tokenId",
          "type": "uint256"
        },
        {
          "indexed": false,
          "internalType": "uint128",
          "name": "liquidity",
          "type": "uint128"
        },
        {
          "indexed": false,
          "internalType": "uint256",
          "name": "amountToken0Used",
          "type": "uint256"
        },
        {
          "indexed": false,
          "internalType": "uint256",
          "name": "amountToken1Used",
          "type": "uint256"
        }
      ],
      "name": "NonfungibleLiquidityPositionMinted",
      "type": "event"
    },
    {
      "anonymous": false,
      "inputs": [
        {
          "indexed": false,
          "internalType": "address",
          "name": "PoolAddress",
          "type": "address"
        },
        {
          "indexed": false,
          "internalType": "uint160",
          "name": "sqrtPriceX96",
          "type": "uint160"
        }
      ],
      "name": "PoolInitialized",
      "type": "event"
    },
    {
      "anonymous": false,
      "inputs": [
        {
          "indexed": true,
          "internalType": "address",
          "name": "from",
          "type": "address"
        },
        {
          "indexed": true,
          "internalType": "address",
          "name": "to",
          "type": "address"
        },
        {
          "indexed": false,
          "internalType": "uint256",
          "name": "value",
          "type": "uint256"
        }
      ],
      "name": "Transfer",
      "type": "event"
    },
    {
      "inputs": [
        {
          "internalType": "address",
          "name": "owner",
          "type": "address"
        },
        {
          "internalType": "address",
          "name": "spender",
          "type": "address"
        }
      ],
      "name": "allowance",
      "outputs": [
        {
          "internalType": "uint256",
          "name": "",
          "type": "uint256"
        }
      ],
      "stateMutability": "view",
      "type": "function"
    },
    {
      "inputs": [
        {
          "internalType": "address",
          "name": "spender",
          "type": "address"
        },
        {
          "internalType": "uint256",
          "name": "amount",
          "type": "uint256"
        }
      ],
      "name": "approve",
      "outputs": [
        {
          "internalType": "bool",
          "name": "",
          "type": "bool"
        }
      ],
      "stateMutability": "nonpayable",
      "type": "function"
    },
    {
      "inputs": [
        {
          "internalType": "address",
          "name": "account",
          "type": "address"
        }
      ],
      "name": "balanceOf",
      "outputs": [
        {
          "internalType": "uint256",
          "name": "",
          "type": "uint256"
        }
      ],
      "stateMutability": "view",
      "type": "function"
    },
    {
      "inputs": [],
      "name": "decimals",
      "outputs": [
        {
          "internalType": "uint8",
          "name": "",
          "type": "uint8"
        }
      ],
      "stateMutability": "view",
      "type": "function"
    },
    {
      "inputs": [
        {
          "internalType": "address",
          "name": "spender",
          "type": "address"
        },
        {
          "internalType": "uint256",
          "name": "subtractedValue",
          "type": "uint256"
        }
      ],
      "name": "decreaseAllowance",
      "outputs": [
        {
          "internalType": "bool",
          "name": "",
          "type": "bool"
        }
      ],
      "stateMutability": "nonpayable",
      "type": "function"
    },
    {
      "inputs": [],
      "name": "deployedPool",
      "outputs": [
        {
          "internalType": "contract IUniswapV3PoolActions",
          "name": "",
          "type": "address"
        }
      ],
      "stateMutability": "view",
      "type": "function"
    },
    {
      "inputs": [
        {
          "internalType": "address",
          "name": "spender",
          "type": "address"
        },
        {
          "internalType": "uint256",
          "name": "addedValue",
          "type": "uint256"
        }
      ],
      "name": "increaseAllowance",
      "outputs": [
        {
          "internalType": "bool",
          "name": "",
          "type": "bool"
        }
      ],
      "stateMutability": "nonpayable",
      "type": "function"
    },
    {
      "inputs": [],
      "name": "name",
      "outputs": [
        {
          "internalType": "string",
          "name": "",
          "type": "string"
        }
      ],
      "stateMutability": "view",
      "type": "function"
    },
    {
      "inputs": [],
      "name": "poolAddress",
      "outputs": [
        {
          "internalType": "address",
          "name": "",
          "type": "address"
        }
      ],
      "stateMutability": "view",
      "type": "function"
    },
    {
      "inputs": [],
      "name": "poolDeployed",
      "outputs": [
        {
          "internalType": "bool",
          "name": "",
          "type": "bool"
        }
      ],
      "stateMutability": "view",
      "type": "function"
    },
    {
      "inputs": [
        {
          "internalType": "uint24",
          "name": "fee",
          "type": "uint24"
        },
        {
          "internalType": "uint160",
          "name": "initialPrice",
          "type": "uint160"
        }
      ],
      "name": "selfDeployPool",
      "outputs": [],
      "stateMutability": "nonpayable",
      "type": "function"
    },
    {
      "inputs": [],
      "name": "symbol",
      "outputs": [
        {
          "internalType": "string",
          "name": "",
          "type": "string"
        }
      ],
      "stateMutability": "view",
      "type": "function"
    },
    {
      "inputs": [],
      "name": "tokenId",
      "outputs": [
        {
          "internalType": "uint256",
          "name": "",
          "type": "uint256"
        }
      ],
      "stateMutability": "view",
      "type": "function"
    },
    {
      "inputs": [],
      "name": "totalSupply",
      "outputs": [
        {
          "internalType": "uint256",
          "name": "",
          "type": "uint256"
        }
      ],
      "stateMutability": "view",
      "type": "function"
    },
    {
      "inputs": [
        {
          "internalType": "address",
          "name": "recipient",
          "type": "address"
        },
        {
          "internalType": "uint256",
          "name": "amount",
          "type": "uint256"
        }
      ],
      "name": "transfer",
      "outputs": [
        {
          "internalType": "bool",
          "name": "",
          "type": "bool"
        }
      ],
      "stateMutability": "nonpayable",
      "type": "function"
    },
    {
      "inputs": [
        {
          "internalType": "address",
          "name": "sender",
          "type": "address"
        },
        {
          "internalType": "address",
          "name": "recipient",
          "type": "address"
        },
        {
          "internalType": "uint256",
          "name": "amount",
          "type": "uint256"
        }
      ],
      "name": "transferFrom",
      "outputs": [
        {
          "internalType": "bool",
          "name": "",
          "type": "bool"
        }
      ],
      "stateMutability": "nonpayable",
      "type": "function"
    },
    {
      "inputs": [],
      "name": "v3Factory",
      "outputs": [
        {
          "internalType": "contract IUniswapV3Factory",
          "name": "",
          "type": "address"
        }
      ],
      "stateMutability": "view",
      "type": "function"
    },
    {
      "inputs": [],
      "name": "v3NPM",
      "outputs": [
        {
          "internalType": "contract INonfungiblePositionManager",
          "name": "",
          "type": "address"
        }
      ],
      "stateMutability": "view",
      "type": "function"
    },
    {
      "inputs": [],
      "name": "weth9c",
      "outputs": [
        {
          "internalType": "contract IWETH9",
          "name": "",
          "type": "address"
        }
      ],
      "stateMutability": "view",
      "type": "function"
    }
  ],
  "bytecode": "0x60806040523480156200001157600080fd5b506040516200206e3803806200206e8339818101604052810190620000379190620005f0565b6040518060400160405280600981526020017f4d6f636b546f6b656e00000000000000000000000000000000000000000000008152506040518060400160405280600881526020017f4d4f434b323533360000000000000000000000000000000000000000000000008152508160039080519060200190620000bb92919062000523565b508060049080519060200190620000d492919062000523565b506012600560006101000a81548160ff021916908360ff16021790555050506000600560156101000a81548160ff021916908315150217905550731f98431c8ad98523631ae4a59f267346ea31f984600760006101000a81548173ffffffffffffffffffffffffffffffffffffffff021916908373ffffffffffffffffffffffffffffffffffffffff16021790555073c36442b4a4522e871399cd717abdd847ab11fe88600860006101000a81548173ffffffffffffffffffffffffffffffffffffffff021916908373ffffffffffffffffffffffffffffffffffffffff16021790555073c778417e063141139fce010982780140aa0cd5ab600a60006101000a81548173ffffffffffffffffffffffffffffffffffffffff021916908373ffffffffffffffffffffffffffffffffffffffff1602179055506200021f33826200026f60201b60201c565b7f0785ca29116b116c7f5454bb9d506795aced63fec6a4388d790aa15998cb9f9d62000251336200044d60201b60201c565b6040516200026091906200062d565b60405180910390a1506200066e565b600073ffffffffffffffffffffffffffffffffffffffff168273ffffffffffffffffffffffffffffffffffffffff16141562000313576040517f08c379a000000000000000000000000000000000000000000000000000000000815260040180806020018281038252601f8152602001807f45524332303a206d696e7420746f20746865207a65726f20616464726573730081525060200191505060405180910390fd5b62000327600083836200049560201b60201c565b62000343816002546200049a60201b62000c5b1790919060201c565b600281905550620003a1816000808573ffffffffffffffffffffffffffffffffffffffff1673ffffffffffffffffffffffffffffffffffffffff168152602001908152602001600020546200049a60201b62000c5b1790919060201c565b6000808473ffffffffffffffffffffffffffffffffffffffff1673ffffffffffffffffffffffffffffffffffffffff168152602001908152602001600020819055508173ffffffffffffffffffffffffffffffffffffffff16600073ffffffffffffffffffffffffffffffffffffffff167fddf252ad1be2c89b69c2b068fc378daa952ba7f163c4a11628f55a4df523b3ef836040518082815260200191505060405180910390a35050565b60008060008373ffffffffffffffffffffffffffffffffffffffff1673ffffffffffffffffffffffffffffffffffffffff168152602001908152602001600020549050919050565b505050565b60008082840190508381101562000519576040517f08c379a000000000000000000000000000000000000000000000000000000000815260040180806020018281038252601b8152602001807f536166654d6174683a206164646974696f6e206f766572666c6f77000000000081525060200191505060405180910390fd5b8091505092915050565b828054600181600116156101000203166002900490600052602060002090601f0160209004810192826200055b5760008555620005a7565b82601f106200057657805160ff1916838001178555620005a7565b82800160010185558215620005a7579182015b82811115620005a657825182559160200191906001019062000589565b5b509050620005b69190620005ba565b5090565b5b80821115620005d5576000816000905550600101620005bb565b5090565b600081519050620005ea8162000654565b92915050565b6000602082840312156200060357600080fd5b60006200061384828501620005d9565b91505092915050565b62000627816200064a565b82525050565b60006020820190506200064460008301846200061c565b92915050565b6000819050919050565b6200065f816200064a565b81146200066b57600080fd5b50565b6119f0806200067e6000396000f3fe608060405234801561001057600080fd5b50600436106101215760003560e01c806339509351116100ad578063a457c2d711610071578063a457c2d714610312578063a9059cbb14610342578063bad9747614610372578063cc155f3e14610390578063dd62ed3e146103ac57610121565b8063395093511461025857806370a082311461028857806370a24918146102b85780637c887c59146102d657806395d89b41146102f457610121565b80631755ff21116100f45780631755ff21146101b057806317d70f7c146101ce57806318160ddd146101ec57806323b872dd1461020a578063313ce5671461023a57610121565b80630100b7131461012657806306fdde0314610144578063095ea7b3146101625780630c165e6a14610192575b600080fd5b61012e6103dc565b60405161013b91906115d4565b60405180910390f35b61014c610402565b6040516101599190611640565b60405180910390f35b61017c600480360381019061017791906113a8565b6104a4565b60405161018991906115b9565b60405180910390f35b61019a6104c2565b6040516101a79190611625565b60405180910390f35b6101b86104e8565b6040516101c5919061153e565b60405180910390f35b6101d661050e565b6040516101e3919061169d565b60405180910390f35b6101f4610514565b604051610201919061169d565b60405180910390f35b610224600480360381019061021f9190611359565b61051e565b60405161023191906115b9565b60405180910390f35b6102426105f7565b60405161024f91906116b8565b60405180910390f35b610272600480360381019061026d91906113a8565b61060e565b60405161027f91906115b9565b60405180910390f35b6102a2600480360381019061029d91906112cb565b6106c1565b6040516102af919061169d565b60405180910390f35b6102c0610709565b6040516102cd919061160a565b60405180910390f35b6102de61072f565b6040516102eb91906115ef565b60405180910390f35b6102fc610755565b6040516103099190611640565b60405180910390f35b61032c600480360381019061032791906113a8565b6107f7565b60405161033991906115b9565b60405180910390f35b61035c600480360381019061035791906113a8565b6108c4565b60405161036991906115b9565b60405180910390f35b61037a6108e2565b60405161038791906115b9565b60405180910390f35b6103aa60048036038101906103a591906113e4565b6108f5565b005b6103c660048036038101906103c1919061131d565b610bd4565b6040516103d3919061169d565b60405180910390f35b600860009054906101000a900473ffffffffffffffffffffffffffffffffffffffff1681565b606060038054600181600116156101000203166002900480601f01602080910402602001604051908101604052809291908181526020018280546001816001161561010002031660029004801561049a5780601f1061046f5761010080835404028352916020019161049a565b820191906000526020600020905b81548152906001019060200180831161047d57829003601f168201915b5050505050905090565b60006104b86104b1610ce3565b8484610ceb565b6001905092915050565b600a60009054906101000a900473ffffffffffffffffffffffffffffffffffffffff1681565b600560019054906101000a900473ffffffffffffffffffffffffffffffffffffffff1681565b60065481565b6000600254905090565b600061052b848484610ee2565b6105ec84610537610ce3565b6105e78560405180606001604052806028815260200161192560289139600160008b73ffffffffffffffffffffffffffffffffffffffff1673ffffffffffffffffffffffffffffffffffffffff168152602001908152602001600020600061059d610ce3565b73ffffffffffffffffffffffffffffffffffffffff1673ffffffffffffffffffffffffffffffffffffffff168152602001908152602001600020546111a39092919063ffffffff16565b610ceb565b600190509392505050565b6000600560009054906101000a900460ff16905090565b60006106b761061b610ce3565b846106b2856001600061062c610ce3565b73ffffffffffffffffffffffffffffffffffffffff1673ffffffffffffffffffffffffffffffffffffffff16815260200190815260200160002060008973ffffffffffffffffffffffffffffffffffffffff1673ffffffffffffffffffffffffffffffffffffffff16815260200190815260200160002054610c5b90919063ffffffff16565b610ceb565b6001905092915050565b60008060008373ffffffffffffffffffffffffffffffffffffffff1673ffffffffffffffffffffffffffffffffffffffff168152602001908152602001600020549050919050565b600960009054906101000a900473ffffffffffffffffffffffffffffffffffffffff1681565b600760009054906101000a900473ffffffffffffffffffffffffffffffffffffffff1681565b606060048054600181600116156101000203166002900480601f0160208091040260200160405190810160405280929190818152602001828054600181600116156101000203166002900480156107ed5780601f106107c2576101008083540402835291602001916107ed565b820191906000526020600020905b8154815290600101906020018083116107d057829003601f168201915b5050505050905090565b60006108ba610804610ce3565b846108b585604051806060016040528060258152602001611996602591396001600061082e610ce3565b73ffffffffffffffffffffffffffffffffffffffff1673ffffffffffffffffffffffffffffffffffffffff16815260200190815260200160002060008a73ffffffffffffffffffffffffffffffffffffffff1673ffffffffffffffffffffffffffffffffffffffff168152602001908152602001600020546111a39092919063ffffffff16565b610ceb565b6001905092915050565b60006108d86108d1610ce3565b8484610ee2565b6001905092915050565b600560159054906101000a900460ff1681565b600560159054906101000a900460ff1615610945576040517f08c379a000000000000000000000000000000000000000000000000000000000815260040161093c90611662565b60405180910390fd5b600760009054906101000a900473ffffffffffffffffffffffffffffffffffffffff1673ffffffffffffffffffffffffffffffffffffffff1663a16712953073c778417e063141139fce010982780140aa0cd5ab856040518463ffffffff1660e01b81526004016109b893929190611559565b602060405180830381600087803b1580156109d257600080fd5b505af11580156109e6573d6000803e3d6000fd5b505050506040513d601f19601f82011682018060405250810190610a0a91906112f4565b600560016101000a81548173ffffffffffffffffffffffffffffffffffffffff021916908373ffffffffffffffffffffffffffffffffffffffff160217905550600560019054906101000a900473ffffffffffffffffffffffffffffffffffffffff16600960006101000a81548173ffffffffffffffffffffffffffffffffffffffff021916908373ffffffffffffffffffffffffffffffffffffffff160217905550600060608273ffffffffffffffffffffffffffffffffffffffff16901b9050600960009054906101000a900473ffffffffffffffffffffffffffffffffffffffff1673ffffffffffffffffffffffffffffffffffffffff1663f637731d826040518263ffffffff1660e01b8152600401610b279190611682565b600060405180830381600087803b158015610b4157600080fd5b505af1158015610b55573d6000803e3d6000fd5b505050507f30440fb2e4ce813a3feb1a945fc1c8190ba344a38f64cb33348155d72ab138b2600560019054906101000a900473ffffffffffffffffffffffffffffffffffffffff1682604051610bac929190611590565b60405180910390a16001600560156101000a81548160ff021916908315150217905550505050565b6000600160008473ffffffffffffffffffffffffffffffffffffffff1673ffffffffffffffffffffffffffffffffffffffff16815260200190815260200160002060008373ffffffffffffffffffffffffffffffffffffffff1673ffffffffffffffffffffffffffffffffffffffff16815260200190815260200160002054905092915050565b600080828401905083811015610cd9576040517f08c379a000000000000000000000000000000000000000000000000000000000815260040180806020018281038252601b8152602001807f536166654d6174683a206164646974696f6e206f766572666c6f77000000000081525060200191505060405180910390fd5b8091505092915050565b600033905090565b600073ffffffffffffffffffffffffffffffffffffffff168373ffffffffffffffffffffffffffffffffffffffff161415610d71576040517f08c379a00000000000000000000000000000000000000000000000000000000081526004018080602001828103825260248152602001806119726024913960400191505060405180910390fd5b600073ffffffffffffffffffffffffffffffffffffffff168273ffffffffffffffffffffffffffffffffffffffff161415610df7576040517f08c379a00000000000000000000000000000000000000000000000000000000081526004018080602001828103825260228152602001806118dd6022913960400191505060405180910390fd5b80600160008573ffffffffffffffffffffffffffffffffffffffff1673ffffffffffffffffffffffffffffffffffffffff16815260200190815260200160002060008473ffffffffffffffffffffffffffffffffffffffff1673ffffffffffffffffffffffffffffffffffffffff168152602001908152602001600020819055508173ffffffffffffffffffffffffffffffffffffffff168373ffffffffffffffffffffffffffffffffffffffff167f8c5be1e5ebec7d5bd14f71427d1e84f3dd0314c0f7b2291e5b200ac8c7c3b925836040518082815260200191505060405180910390a3505050565b600073ffffffffffffffffffffffffffffffffffffffff168373ffffffffffffffffffffffffffffffffffffffff161415610f68576040517f08c379a000000000000000000000000000000000000000000000000000000000815260040180806020018281038252602581526020018061194d6025913960400191505060405180910390fd5b600073ffffffffffffffffffffffffffffffffffffffff168273ffffffffffffffffffffffffffffffffffffffff161415610fee576040517f08c379a00000000000000000000000000000000000000000000000000000000081526004018080602001828103825260238152602001806118ba6023913960400191505060405180910390fd5b610ff983838361125d565b611064816040518060600160405280602681526020016118ff602691396000808773ffffffffffffffffffffffffffffffffffffffff1673ffffffffffffffffffffffffffffffffffffffff168152602001908152602001600020546111a39092919063ffffffff16565b6000808573ffffffffffffffffffffffffffffffffffffffff1673ffffffffffffffffffffffffffffffffffffffff168152602001908152602001600020819055506110f7816000808573ffffffffffffffffffffffffffffffffffffffff1673ffffffffffffffffffffffffffffffffffffffff16815260200190815260200160002054610c5b90919063ffffffff16565b6000808473ffffffffffffffffffffffffffffffffffffffff1673ffffffffffffffffffffffffffffffffffffffff168152602001908152602001600020819055508173ffffffffffffffffffffffffffffffffffffffff168373ffffffffffffffffffffffffffffffffffffffff167fddf252ad1be2c89b69c2b068fc378daa952ba7f163c4a11628f55a4df523b3ef836040518082815260200191505060405180910390a3505050565b6000838311158290611250576040517f08c379a00000000000000000000000000000000000000000000000000000000081526004018080602001828103825283818151815260200191508051906020019080838360005b838110156112155780820151818401526020810190506111fa565b50505050905090810190601f1680156112425780820380516001836020036101000a031916815260200191505b509250505060405180910390fd5b5082840390509392505050565b505050565b6000813590506112718161185d565b92915050565b6000815190506112868161185d565b92915050565b60008135905061129b81611874565b92915050565b6000813590506112b08161188b565b92915050565b6000813590506112c5816118a2565b92915050565b6000602082840312156112dd57600080fd5b60006112eb84828501611262565b91505092915050565b60006020828403121561130657600080fd5b600061131484828501611277565b91505092915050565b6000806040838503121561133057600080fd5b600061133e85828601611262565b925050602061134f85828601611262565b9150509250929050565b60008060006060848603121561136e57600080fd5b600061137c86828701611262565b935050602061138d86828701611262565b925050604061139e868287016112b6565b9150509250925092565b600080604083850312156113bb57600080fd5b60006113c985828601611262565b92505060206113da858286016112b6565b9150509250929050565b600080604083850312156113f757600080fd5b6000611405858286016112a1565b92505060206114168582860161128c565b9150509250929050565b61142981611753565b82525050565b611438816116ef565b82525050565b61144781611701565b82525050565b61145681611765565b82525050565b61146581611789565b82525050565b611474816117ad565b82525050565b611483816117d1565b82525050565b6000611494826116d3565b61149e81856116de565b93506114ae818560208601611819565b6114b78161184c565b840191505092915050565b60006114cf6009836116de565b91507f6f6e6c79206f6e636500000000000000000000000000000000000000000000006000830152602082019050919050565b61150b8161170d565b82525050565b61151a8161172d565b82525050565b6115298161173c565b82525050565b61153881611746565b82525050565b6000602082019050611553600083018461142f565b92915050565b600060608201905061156e600083018661142f565b61157b6020830185611420565b6115886040830184611511565b949350505050565b60006040820190506115a5600083018561142f565b6115b26020830184611502565b9392505050565b60006020820190506115ce600083018461143e565b92915050565b60006020820190506115e9600083018461144d565b92915050565b6000602082019050611604600083018461145c565b92915050565b600060208201905061161f600083018461146b565b92915050565b600060208201905061163a600083018461147a565b92915050565b6000602082019050818103600083015261165a8184611489565b905092915050565b6000602082019050818103600083015261167b816114c2565b9050919050565b60006020820190506116976000830184611502565b92915050565b60006020820190506116b26000830184611520565b92915050565b60006020820190506116cd600083018461152f565b92915050565b600081519050919050565b600082825260208201905092915050565b60006116fa8261170d565b9050919050565b60008115159050919050565b600073ffffffffffffffffffffffffffffffffffffffff82169050919050565b600062ffffff82169050919050565b6000819050919050565b600060ff82169050919050565b600061175e826117f5565b9050919050565b600061177082611777565b9050919050565b60006117828261170d565b9050919050565b60006117948261179b565b9050919050565b60006117a68261170d565b9050919050565b60006117b8826117bf565b9050919050565b60006117ca8261170d565b9050919050565b60006117dc826117e3565b9050919050565b60006117ee8261170d565b9050919050565b600061180082611807565b9050919050565b60006118128261170d565b9050919050565b60005b8381101561183757808201518184015260208101905061181c565b83811115611846576000848401525b50505050565b6000601f19601f8301169050919050565b611866816116ef565b811461187157600080fd5b50565b61187d8161170d565b811461188857600080fd5b50565b6118948161172d565b811461189f57600080fd5b50565b6118ab8161173c565b81146118b657600080fd5b5056fe45524332303a207472616e7366657220746f20746865207a65726f206164647265737345524332303a20617070726f766520746f20746865207a65726f206164647265737345524332303a207472616e7366657220616d6f756e7420657863656564732062616c616e636545524332303a207472616e7366657220616d6f756e74206578636565647320616c6c6f77616e636545524332303a207472616e736665722066726f6d20746865207a65726f206164647265737345524332303a20617070726f76652066726f6d20746865207a65726f206164647265737345524332303a2064656372656173656420616c6c6f77616e63652062656c6f77207a65726fa2646970667358221220a237fce8b50d2ee92d3b2d903c2d3cb34707a429af4e80d03ae07b513cf114b764736f6c63430007060033",
  "linkReferences": {},
  "deployedLinkReferences": {}
}